:020000040800F2
:1000000088690020DD010008752900086B1D0008C3
:100010007129000851080008C52E000800000000E2
:100020000000000000000000000000004501000882
:10003000550800080000000089010008192B00087D
:10004000F7010008F7010008F7010008F7010008B0
:10005000F7010008F7010008F7010008F7010008A0
:10006000F7010008F7010008F7010008F701000890
:10007000F7010008F7010008F7010008F701000880
:10008000F7010008F7010008F7010008F701000870
:10009000F7010008F7010008F7010008F701000860
:1000A000F7010008F7010008F7010008F701000850
:1000B000F7010008F7010008F7010008F701000840
:1000C000F7010008F7010008F7010008F701000830
:1000D000F7010008852E0008F7010008F701000865
:1000E000F7010008F7010008F7010008F701000810
:1000F000F7010008F7010008F7010008F701000800
:10010000F7010008F7010008F7010008F7010008EF
:10011000F7010008F7010008F7010008F7010008DF
:10012000F7010008F7010008F7010008F7010008CF
:10013000DFF80CD000F02EFB00480047B93B000868
:1001400088690020224B19680868B0E8F00F80F336
:100150000988BFF36F8F4FF0000080F311884EF0D5
:100160000D0E70470000000006480068006880F32C
:10017000088862B661B6BFF34F8FBFF36F8F00DFA1
:1001800000BF00BF08ED00E0EFF30980BFF36F8F01
:100190000F4B1A6820E9F00F106008B54FF05000BF
:1001A00080F31188BFF34F8FBFF36F8F05F08CFB87
:1001B0004FF0000080F31188BDE808401968086816
:1001C000B0E8F00F80F30988BFF36F8F704700BF6E
:1001D00048000020EFF30580704700000648804784
:1001E00006480047FEE7FEE7FEE7FEE7FEE7FEE71C
:1001F000FEE7FEE7FEE7FEE7292B000831010008D5
:10020000202A04DB203A21FA02F00021704721FA6B
:1002100002F3D040C2F120029140084319467047D2
:1002200040EA01039B0703D009E008C9121F08C078
:10023000042AFAD203E011F8013B00F8013B521EF8
:10024000F9D27047D2B201E000F8012B491EFBD26F
:1002500070470022F6E710B513460A4604461946D1
:10026000FFF7F0FF204610BD421E12F8013F002BA1
:10027000FBD111F8013B02F8013B002BF9D170478B
:1002800030B505462A460B4612F8010B13F8014B10
:1002900008B1A042F8D01CB1002802D06D1CF1E7D3
:1002A000284630BD10B5044604E00B7800F8013B49
:1002B00003B1491C521EF8D2204610BD421C10F852
:1002C000011B0029FBD1801A7047034611F8012B4E
:1002D00000F8012B002AF9D1184670472DE9FE4F8E
:1002E00081EA030404F0004421F0004100944FF03F
:1002F000000B23F0004350EA01045ED052EA0304ED
:100300005BD0C3F30A54C1F30A552C44A4F2F3346E
:100310000194A0FB0254C1F3130141F48011C3F313
:10032000130343F4801301FB024400FB034E840AD1
:10033000970A44EA815447EA8357A4FB0768029569
:100340008D0A05FB07854FEA932C04FB0C54270507
:10035000029D4FEA065847EA1637B5EB08056EEBE3
:10036000070C870E920E47EA811742EA8312A7FB19
:100370000201B6EB0B0164EB00042B0D43EA0C33D6
:100380005E1844EB1C50DA465146E7FB0201C5F308
:1003900013044FEA0B3343EA14534FEA0432019C2F
:1003A00043EA0603A4F10C040294009CCDE900B4D6
:1003B00000F074F803B0BDE8F08F00200146F9E7C3
:1003C00030B5041E71F1000404DB4FF000444042DC
:1003D00064EB0101141E73F1000405DB1C464FF0B1
:1003E0000043524263EB0403994208BF904230BD80
:1003F00030B50B46014600202022012409E021FAF5
:1004000002F59D4205D303FA02F5491B04FA02F5F1
:100410002844151EA2F10102F1DC30BD2DE9F05F88
:100420000546002092469B46884606468146402463
:100430001BE02846414647462246FFF7E1FE534669
:100440005A46C01A914110D311461846224600F070
:10045000B3F92D1A67EB01084F462246012000210F
:1004600000F0AAF917EB00094E41201EA4F1010487
:10047000DFDC484631462A464346BDE8F09F10B5CA
:10048000141E73F1000408DA401C41F100019218B7
:100490005B411A4301D120F0010010BD2DE9F04D60
:1004A00092469B4611B1B1FA81F202E0B0FA80F2B5
:1004B0002032904600F080F904460F4640EA0A00D8
:1004C00041EA0B0153465A46084313D0114653EAFA
:1004D000010019D0C8F140025046FFF791FE0546D1
:1004E0000E4650465946424600F066F9084305D08C
:1004F000012004E020463946BDE8F08D0020054388
:1005000046EAE0762C4337430A986305E40AA0EBF9
:1005100008000022FD0A44EA47540A3002D50020B0
:100520000146E9E7010510196941DDE908450019AF
:100530006941BDE8F04DA2E72DE9FE4F804681EA12
:100540000300C00F0C46009021F0004123F000454D
:10055000B8EB0200A94105D24046214690461C4610
:100560000B46024623F00040104347D0270DC7F347
:100570000A00C3F30A510290401A019040286BDA36
:10058000C3F3130040F4801B0098924620B100236F
:10059000D2EB030A63EB0B0B01985946C0F1400202
:1005A000504600F009F906460D4650465946019A54
:1005B00000F011F910EB08006141002487EA1152A4
:1005C00084EAE7731A4340D0009A62B3019A012A81
:1005D0004FEA075215DC001B61EB02014FF00042AD
:1005E00002EA0752CDE90042001C41F58011324673
:1005F0002B46FFF753FF03B0BDE8F08F404621467E
:10060000F9E7001B61EB0201001C41F580130018A3
:100610005B412018A2F5001747EB030140EAD570B3
:10062000B6196D4111E06D084FEA360645EAC0750E
:100630004FEA0752001B61EB0201001C41F58011DB
:1006400049084FEA30000019514132462B4603B0A9
:10065000BDE8F04FFFF713BF0098012240000023D0
:10066000D0EB020263EBE073009821464FEAE0749E
:10067000B8EB000061EB0401E9E783F000435BE7BE
:1006800081F0004158E72DE9F04D81EA030404F0C0
:10069000004B21F0004514464FF0000A23F00041C2
:1006A00050EA050220D054EA01021DD0C5F30A57D2
:1006B0000246C5F31303C1F31300C1F30A5640F415
:1006C000801543F48013A7EB0608101BD64608F2EA
:1006D000FD3873EB050002D308F1010801E0921820
:1006E0005B41B8F1000F03DA00200146BDE8F08D50
:1006F00000204FF48011064684460EE0171B73EB72
:10070000050705D3121B63EB050306434CEA010CF6
:1007100049084FEA300092185B4150EA0107EDD1D9
:1007200052EA030012D082EA040083EA050108437A
:1007300005D0101BAB4106D20122002306E00022A7
:100740004FF0004302E06FF0010253101AEB060075
:100750004CEB085110EB0A0041EB0B01BDE8F04DEA
:10076000FFF78DBEC1F30A52C1F3130140F2FF330C
:1007700041F480119A4202DA00200146704740F2AB
:1007800033439A42A2F2334202DC5242FFF738BDB1
:1007900000F012B8064C074D06E0E06840F0010397
:1007A00094E8070098471034AC42F6D3FFF7C4FC36
:1007B0003868000858680008202A04DB203A00FA4C
:1007C00002F1002070479140C2F1200320FA03F3A8
:1007D000194390407047202A06DBCB17203A41FA94
:1007E00002F043EAE07306E041FA02F3D040C2F1BE
:1007F0002002914008431946704770B58C1810F8D4
:10080000015B15F0070301D110F8013B2A1106D155
:1008100010F8012B03E010F8016B01F8016B5B1E6F
:10082000F9D12B0705D40023521E0DD401F8013B4A
:10083000FAE710F8013BCB1A921C03E013F8015BB6
:1008400001F8015B521EF9D5A142D8D3002070BD3A
:1008500000BFFEE77047000000B585B000BF0D483F
:10086000806940F040000B4988610846806900F0CB
:100870004000009000BF00BF0120029000200390C4
:10088000032004904620019001A9034800F0DAF803
:1008900005B000BD001002400018014070B50446CC
:1008A000002594F82100022803D00420A06301252C
:1008B000C1E02068006820F00E0021680860206810
:1008C000006820F00100216808605C4920688842C7
:1008D00052D95A4978392068884201D1012047E02D
:1008E000564964392068884201D1102040E05349BC
:1008F00050392068884201D1801539E04F493C3990
:100900002068884201D1801432E04C49283920689F
:10091000884202D14FF480302AE0484914392068D7
:10092000884202D14FF4801022E044492068884276
:1009300001D140041CE042492068884201D10120D5
:1009400016E03F4914312068884201D110200FE0A1
:100950003B4928312068884201D1801508E0384998
:100960003C312068884201D1801401E04FF480308E
:100970003349091F086051E03049783920688842BE
:1009800001D1012047E02D4964392068884201D116
:10099000102040E0294950392068884201D1801553
:1009A00039E026493C392068884201D1801432E080
:1009B000224928392068884202D14FF480302AE049
:1009C0001E4914392068884202D14FF4801022E079
:1009D0001A492068884201D140041CE01849206867
:1009E000884201D1012016E015491431206888425F
:1009F00001D110200FE0124928312068884201D12E
:100A0000801508E00E493C312068884201D18014ED
:100A100001E04FF48030094980394860012084F8B2
:100A2000210000BF002084F8200000BF606B10B1DF
:100A30002046616B8847284670BD00008000024058
:100A4000080402402DE9F847024600239C467BE15A
:100A50004FF0010808FA03F4D1F8008008EA040016
:100A6000A0427DD1DFF8F4A2D1F80480A8EB0A09F6
:100A7000D0453AD014DCB8F1030F50D009DCB8F1FE
:100A8000000F31D0B8F1010F1CD0B8F1020F49D1DD
:100A900020E0B8F1110F18D0B8F1120F42D11EE0CA
:100AA000B9F5881F25D006DCB9F5803F20D0B9F50F
:100AB000801F37D11AE0B9F5001F18D0B9F5041F0F
:100AC00030D117E0D1F80CC02DE0D1F80C8008F13E
:100AD000040C28E0D1F80C8008F1080C23E0D1F8D0
:100AE0000C8008F10C0C1EE000BF00BF00BF00BF6F
:100AF00000BF00BFD1F80880B8F1000F02D14FF05D
:100B0000040C0BE0D1F80880B8F1010F03D14FF0CD
:100B1000080C146102E04FF0080C546103E04FF040
:100B2000000C00E000BF00BFFF2801D8904601E0A4
:100B300002F104084646FF2802D84FEA830803E082
:100B4000A3F108084FEA88084746D6F800804FF01E
:100B50000F0909FA07F928EA09080CFA07F900E071
:100B60007AE048EA0908C6F80080D1F8048008F065
:100B70008058B8F1805F6FD100BFDFF8E481D8F80A
:100B8000188048F00108DFF8D891C9F81880C846E5
:100B9000D8F8188008F00108CDF8008000BF00BF29
:100BA0004FEAB9384FEA930958F829504FEA837849
:100BB0004FEA18794FF00F0808FA09F825EA0805F6
:100BC000DFF8A081424502D14FF0000824E0DFF8B1
:100BD0009881424502D14FF001081DE0DFF88C8179
:100BE000424502D14FF0020816E0DFF88481424509
:100BF00002D14FF003080FE0DFF87881424502D1BF
:100C00004FF0040808E0DFF87081424502D14FF050
:100C1000050801E04FF006084FEA83794FEA197999
:100C200008FA09F848EA0505DFF850814FEA930908
:100C300048F82950D1F8048008F48038B8F5803F8E
:100C40000BD1DFF83C81D8F8008048EA0008DFF8D3
:100C50003091C9F800800AE075E0DFF82481D8F807
:100C6000008028EA0008DFF81891C9F80080D1F860
:100C7000048008F40038B8F5003F0ED1DFF8008199
:100C800008F10408D8F8008048EA0008DFF8F0907E
:100C900009F10409C9F800800DE0DFF8E48008F1EB
:100CA0000408D8F8008028EA0008DFF8D49009F199
:100CB0000409C9F80080D1F8048008F48018B8F558
:100CC000801F0ED1DFF8B88008F10808D8F800803E
:100CD00048EA0008DFF8A89009F10809C9F800807F
:100CE0000DE0DFF89C8008F10808D8F8008028EAB9
:100CF0000008DFF88C9009F10809C9F80080D1F8E4
:100D0000048008F40018B8F5001F0ED1DFF87080D9
:100D100008F10C08D8F8008048EA0008DFF8609075
:100D200009F10C09C9F800800DE0DFF8548008F1E2
:100D30000C08D8F8008028EA0008DFF8449009F190
:100D40000C09C9F800805B1CD1F8008028FA03F870
:100D5000B8F1000F7FF47CAEBDE8F88700001110F9
:100D60000010024000080140000C0140001001404A
:100D70000014014000180140001C0140080001401F
:100D8000000401400AB1016101E00B0403617047F6
:100D900001480068704700000C00002010B50848AA
:100DA000006840F0100006490860032000F080F859
:100DB0000F2000F007F800F02BF8002010BD000015
:100DC0000020024070B504460E4800784FF47A7156
:100DD000B1FBF0F00C490968B1FBF0F5284600F0D2
:100DE000EEFD08B1012070BD102C07D20022214673
:100DF000501E00F01EF80548046001E00120F2E7F3
:100E00000020F0E71400002008000020100000205F
:100E1000704701460846002809DB00F01F03012245
:100E20009A4043099B0003F1E023C3F8002100BF6F
:100E300070472DE9F05F80460D461646002702F008
:100E40008FF8074639462A46334601F00700C0F1BD
:100E5000070ABAF1040F02D94FF0040A01E0C0F109
:100E6000070AD14600F1040ABAF1070F02D24FF087
:100E7000000A01E0A0F1030AD4464FF0010A0AFA81
:100E800009FAAAF1010A0AEA020A0AFA0CFA4FF070
:100E9000010B0BFA0CFBABF1010B0BEA030B4AEA5B
:100EA0000B042146404602F063F8BDE8F09F0000C5
:100EB00000BF00F00702064B19684FF6FF03194008
:100EC000044B0B4343EA0221014B196000BF7047FA
:100ED0000CED00E00000FA0570B504460D460CB9B3
:100EE000012070BD5A48006800F00700A8420ED2E9
:100EF0005748006820F00700284355490860084615
:100F0000006800F00700A84201D00120E9E720783E
:100F100000F0020002281DD1207800F0040004280F
:100F200005D14C48406840F4E0604A494860207868
:100F300000F00800082805D14648406840F4605099
:100F4000444948604348406820F0F000A1680843E5
:100F500040494860207800F0010078B360680128BB
:100F600006D13C48006800F4003090B90120B8E791
:100F70006068022806D13748006800F0007040B968
:100F80000120AEE73348006800F0020008B90120F4
:100F9000A7E73048406820F00300616808432D4906
:100FA0004860FFF7F5FE064609E0FFF7F1FE801BFB
:100FB00041F28831884202D9032092E707E02548B0
:100FC000406800F00C006168B0EB810FEDD1204863
:100FD000006800F00700A8420ED91D48006820F004
:100FE000070028431A4908600846006800F0070017
:100FF000A84201D0012074E7207800F00400042802
:1010000007D11448406820F4E060E16808431149C2
:101010004860207800F00800082808D10D48406892
:1010200020F46050216940EAC1000A49486000F09C
:101030003FF808494968C1F30311074A515CC840A9
:101040000649086006480068FFF7BCFE002048E734
:101050000020024000100240C8670008080000207D
:1010600010000020014800687047000008000020C0
:1010700000B5FFF7F7FF04494968C1F30221034AAD
:10108000515CC84000BD000000100240D867000855
:1010900000B5FFF7E7FF04494968C1F3C221034ADD
:1010A000515CC84000BD000000100240D867000835
:1010B000F0B585B00FF26C0C9CE8E01001A8A0E838
:1010C000E0101CA52D6800950021002200230024BB
:1010D0000020194D696801F00C05F5B1042D02D00E
:1010E000082D19D101E0154819E001ADC1F383467F
:1010F000AC5D01F4803555B10F4D6D68C5F34045C9
:101100001DF805200D4D6543B5FBF2F302E00C4DD3
:1011100004FB05F3184602E000BF084800BF00BF0B
:1011200005B0F0BD02030405060708090A0B0C0D03
:101130000E0F1010010200000010024000127A0091
:1011400000093D00F8B504460CB90120F8BD20782F
:1011500000F00100002878D0F848406800F00C004A
:1011600004280CD0F548406800F00C00082811D184
:10117000F248406800F48030B0F5803F0AD1EF4873
:10118000006800F4003000285FD0606800285CD15F
:101190000120DBE700BF6068B0F5803F06D1E7487B
:1011A000006840F48030E549086028E0606858B97C
:1011B000E248006820F48030E04908600846006892
:1011C00020F4802008601AE06068B0F5A02F0BD1F1
:1011D000DA48006840F48020D84908600846006872
:1011E00040F4803008600AE0D448006820F4803081
:1011F000D24908600846006820F48020086000BFDB
:10120000606888B1FFF7C4FD054606E0FFF7C0FD42
:10121000401B642801D9032098E7C848006800F4FF
:1012200000300028F2D010E0FFF7B2FD054606E0DE
:10123000FFF7AEFD401B642801D9032086E7BF48B5
:10124000006800F400300028F2D1207800F002009D
:10125000022857D1B948406800F00C0050B1B74897
:10126000406800F00C00082818D1B448406800F429
:10127000803098B9B148006800F0020020B12069C0
:10128000012801D0012061E7AC48006820F0F80097
:10129000616940EAC100A949086033E02069E8B10A
:1012A0000120A7490860FFF773FD054606E0FFF738
:1012B0006FFD401B022801D9032047E79F480068C3
:1012C00000F002000028F2D09C48006820F0F800EE
:1012D000616940EAC1009949086013E0002098491B
:1012E0000860FFF755FD054606E0FFF751FD401B7E
:1012F000022801D9032029E79048006800F0020085
:101300000028F2D1207800F0080008282DD1A0692B
:10131000B8B101208B490860FFF73AFD054606E0A9
:10132000FFF736FD401B022801D903200EE7834852
:10133000406A00F002000028F2D0012001F01CFBFE
:1013400013E000207F490860FFF722FD054606E014
:10135000FFF71EFD401B022801D90320F6E677485F
:10136000406A00F002000028F2D1207800F004006A
:10137000042873D100277148C06900F0805070B90B
:1013800000BF6E48C06940F080506C49C861084693
:10139000C06900F08050009000BF00BF01276A487C
:1013A000006800F48070B0B96748006840F480704D
:1013B00065490860FFF7ECFC054606E0FFF7E8FC2E
:1013C000401B642801D90320C0E65F48006800F490
:1013D00080700028F2D000BFE068012806D157488D
:1013E000006A40F001005549086227E0E06858B9FA
:1013F0005248006A20F00100504908620846006A1D
:1014000020F00400086219E0E06805280BD14B4881
:10141000006A40F00400494908620846006A40F04A
:10142000010008620AE04548006A20F001004349D3
:1014300008620846006A20F00400086200BFE06805
:10144000A0B1FFF7A5FC054609E0FFF7A1FC401B92
:1014500041F28831884202D9032077E622E03748FA
:10146000006A00F002000028EFD012E0FFF790FCC5
:10147000054608E0FFF78CFC401B41F288318842AA
:1014800001D9032062E62D48006A00F0020000281E
:10149000F0D1012F05D12948C06920F0805027499B
:1014A000C86100BFE069C8B32448406800F00C0080
:1014B000082860D0E069022848D100202049086649
:1014C000FFF766FC054606E0FFF762FC401B0228BA
:1014D00001D903203AE61948006800F0007000289E
:1014E000F2D1206AB0F5803F07D11448406820F45B
:1014F0000030A168084311494860D4E90801084355
:101500000E49496821F4741108430C4948600120D0
:101510000B490866FFF73CFC054607E03DE0FFF796
:1015200037FC401B022801D903200FE6034800685E
:1015300000F000700028F2D02FE000000010024000
:1015400000004242800442420070004000201449E2
:101550000866FFF71DFC054606E0FFF719FC401B77
:10156000022801D90320F1E50E48006800F0007060
:101570000028F2D111E0E069012800D1E6E5094830
:10158000466806F48031206A814204D106F4701165
:10159000606A814201D00120D8E50020D6E5000034
:1015A000000042420010024010B504460CB9012070
:1015B00010BD606A00B900BFA06AB0F5005F00D13D
:1015C00000BF94F8510028B9002084F8500020464C
:1015D00000F038F8022084F851002068006820F0FC
:1015E000400021680860D4E901010843E16808432C
:1015F0002169084361690843218B01F400710843A4
:10160000E1690843216A0843A16A08432168086028
:101610000421A06901EA104021684860A06AB0F581
:10162000005F02D12168E06A08612068C06920F487
:1016300000602168C86100206065012084F85100C5
:101640000020B5E710B586B0044600BF1448806995
:1016500040F00800124988610846806900F00800DF
:10166000019000BF00BF00BF0846C06940F4804041
:10167000C8610846C06900F48040019000BF00BF07
:101680004FF4604002900220039001200490032058
:10169000059002A90348FFF7D5F906B010BD000078
:1016A00000100240000C01402DE9FF5F044688460F
:1016B00091461D460E9E012002900020019000BF21
:1016C00094F85000012803D1022004B0BDE8F09F37
:1016D000012084F8500000BFFFF75AFB074694F83A
:1016E00051B060680390AA46BBF1010F0BD003987C
:1016F000B0F5827F04D1A06810B9BBF1040F02D00D
:10170000022001903DE1B8F1000F03D0B9F1000FC4
:1017100000D015B90120019033E194F8510004285C
:1017200002D0052084F8510000206065C4F838908C
:10173000E587A587C4F83080E586A58620646064C7
:10174000A06AB0F5005F0DD100BF2068006820F4EA
:101750000050216808602068006840F4005021684B
:10176000086000BF2068006800F04000402805D0F5
:101770002068006840F0400021680860E068B0F52B
:10178000006F56D1606810B1BAF1010F09D1206B1A
:1017900000882168C860206B801C2063E08E401E9A
:1017A000E0863FE02068806800F0020002281CD13B
:1017B000E08ED0B10298012817D1206B00882168F3
:1017C000C860206B801C2063E08E401EE0860020F5
:1017D0000290E08E48B9A06AB0F5005F05D120689C
:1017E000006840F48050216808602068806800F03C
:1017F000010068B1E08F58B12068C068A16B088013
:10180000A06B801CA063E08F401EE0870120029047
:10181000FFF7BEFAC01BB04204D3701C10B1032006
:101820000190AEE0E08E0028BCD1E08F0028B9D155
:1018300056E0606810B1BAF1010F09D1206B007851
:1018400021680873206B401C2063E08E401EE086F8
:1018500040E02068806800F0020002281CD1E08E81
:10186000D0B10298012817D1206B00782168087345
:10187000206B401C2063E08E401EE086002002901A
:10188000E08E48B9A06AB0F5005F05D12068006815
:1018900040F48050216808602068806800F00100F2
:1018A00068B1E08F58B12068C068A16B0870A06B68
:1018B000401CA063E08F401EE08701200290FFF7EC
:1018C00067FAC01BB04201D3701C00B916B90320DF
:1018D000019056E0E08E0028BBD1E08F0028B8D1FF
:1018E000A06AB0F5005F10D13346012211462046B0
:1018F000009701F092F830B1606D40F00200606531
:10190000032001903DE02068C06820688068C0F333
:101910000010E8B1204601F07DF8012814D1606D77
:1019200040F00200606500BF2068006820F40050AD
:10193000216808602068006840F400502168086051
:1019400000BF0120019003E04FF6EF70216888602E
:101950003A463146204601F049F820B10120019075
:10196000202060650DE0A06850B900BF0020009005
:101970002068C068009020688068009000BF00BFA9
:1019800000BF012084F8510000BF002084F85000FF
:1019900000BF019899E6042808D14FF0E0210969B9
:1019A00041F004014FF0E022116107E04FF0E02127
:1019B000096921F004014FF0E0221161704770B510
:1019C00004462546681EB0F1807F01D301200FE058
:1019D000681E4FF0E02148610F214FF0FF3001F009
:1019E000C7FA00204FF0E02188610720086100203D
:1019F00070BD704701460022002391F8392091F80C
:101A00003A3042EA030070472DE9F0470446206867
:101A100005682068C668206847694FF00008C1461D
:101A200005F00F08B8F1000F0AD105F0200038B119
:101A300006F0200020B1204601F0CCF8BDE8F08788
:101A4000B8F1000F6DD007F0010018B906F49070DE
:101A5000002866D005F0010030B106F4807018B19E
:101A6000E06B40F00100E06305F0040030B107F0E6
:101A7000010018B1E06B40F00200E06305F00200E5
:101A800030B107F0010018B1E06B40F00400E063F2
:101A900005F0080030B107F0010018B1E06B40F02C
:101AA0000800E063E06B68B305F0200028B106F0A1
:101AB000200010B1204601F08DF820684069C0F385
:101AC0008019E06B00F0080010B9B9F1000F22D0C6
:101AD000204601F05FF82068406900F04000B0B196
:101AE0002068406920F0400021684861606B50B177
:101AF0001748616B4863606BFEF7D0FE10B1606BF6
:101B0000416B88470CE02046FFF773FF08E0204652
:101B1000FFF76FFF04E02046FFF76BFF0020E06354
:101B20008CE705F0800030B106F0800018B1204647
:101B300001F074F982E705F0400030B106F0400092
:101B400018B1204601F036F878E700BF76E70000CC
:101B5000812B000810B504460CB9012010BDA06906
:101B600000B100E000BF94F8390028B9002084F8E3
:101B70003800204600F028F8242084F83900206836
:101B8000C06820F400502168C860204601F076F853
:101B90002068006920F4904021680861206840694D
:101BA00020F02A00216848612068C06840F4005095
:101BB0002168C8600020E063202084F8390084F8A0
:101BC0003A000020CAE7000010B586B00446254957
:101BD0002068884244D100BF2348806940F0040057
:101BE000214988610846806900F00400019000BF27
:101BF00000BF00BF0846806940F480408861084605
:101C0000806900F48040019000BF00BF00BF08461B
:101C1000806940F0010088610846806900F0010099
:101C2000019000BF00BF48150290022003900120E0
:101C300004900320059002A90C48FEF703FF4FF41F
:101C4000806002900020039002A90848FEF7FAFE87
:101C50002520FFF7DEF8032211462520FFF7E9F8DB
:101C600006B010BD003801400010024000080140DD
:101C700010B5034693F83A0020282FD101B10AB9D4
:101C8000012010BD00BF93F83800012801D10220C7
:101C9000F7E7012083F8380000BF99629A85DA855A
:101CA0000020D863222083F83A0000BF002083F888
:101CB000380000BF1868C06840F480701C68E0609D
:101CC0001868406940F001001C6860611868C068CD
:101CD00040F020001C68E0600020D2E70220D0E73E
:101CE0001D4A0168914236D11C49098801F400411E
:101CF00089BB1A49098801F4804171B118490978F2
:101D00000A2903D00021154A118024E013490988CB
:101D100041F40041114A11801DE0114909780D2953
:101D200006D10E49098841F480410C4A118012E025
:101D30000B490978094A1288C2F30D02094B9954DC
:101D400006490988491C054A118011460988C72996
:101D500001DD002111807047003801401A00002089
:101D60001C0000204C010020704700BFFEE710B5AA
:101D7000002001F0A9F810BD10B5012001F0A4F871
:101D800010BD70B504460025FFF7F1FFC4F307400E
:101D900000F010F8C4F3072000F00CF804F0F8008D
:101DA00000F008F8002000F005F80546FFF7E4FF12
:101DB000284670BD10B50446204600F007FE10BD51
:101DC00070B504460D46FFF7D2FFC4F30740FFF796
:101DD000F1FFC4F30720FFF7EDFF04F0F801091D40
:101DE000C8B2FFF7E7FF2846FFF7E4FFFFF7C4FF9D
:101DF00070BD000000B585B000BF1B48806940F091
:101E00000800194988610846806900F008000090C0
:101E100000BF00BF00BF0846806940F040008861F5
:101E20000846806900F04000009000BF00BF2020FD
:101E300001900120029003900320049001A90B4817
:101E4000FEF700FE2020019001A90948FEF7FAFDE7
:101E5000012220210548FEF795FF01222021044898
:101E6000FEF790FF05B000BD00100240000C0140DD
:101E7000001801402DE9FF5F07460C469046994641
:101E8000DDE90FAB0E9D0020039011980290002613
:101E900000200190009002A802F096FD8DF80C0041
:101EA0000398C0F3031127A001F04AF80398C0F388
:101EB0000310032800D041E00398C0F3C00038703D
:101EC0000398C0F3410020600398C0F3410122A0B1
:101ED00001F036F8039800F0010088F80000694628
:101EE000029800F087F80190029908440290009946
:101EF00002984618324602A9284602F079FD10B130
:101F00000298301A00D519E019A0A96801F018F854
:101F10001CA0696801F014F82068002804DD02A8FC
:101F200002F059FDA9F800000298301ACBF8000021
:101F30000298CAF800000120019000BF019804B087
:101F4000BDE8F09F6865616465722E6279706520F6
:101F500069732025780D0A006865616465722E62D8
:101F60006974732E716F732069732025640D0A00E4
:101F7000746F7069636E616D652069732025730DE0
:101F80000A000000746F7069636E616D65206C6596
:101F90006E20697325640D0A000000002DE9F843E6
:101FA00005460C46012600270020206000BF4FF0A8
:101FB000FF38781C0746042801DD00BF17E0012127
:101FC0006846A8478046B8F1010F00D00FE09DF8A1
:101FD000001001F07F01206801FB06002060F6017F
:101FE0009DF8000000F080000028E0D100BF3846D6
:101FF000BDE8F88370B504460D46034804602946E1
:102000000248FFF7CBFF70BDBC0000204D38000830
:1020100030B50246002300BF0846CD1701EB5565D9
:10202000ED11A1EBC515ECB2CD1701EB5565E9112A
:10203000002901DD44F0800418465B1C145400297B
:10204000EADC184630BD0000401C802801DA401C44
:102050000AE0B0F5804F01DA801C05E003498842B0
:1020600001DAC01C00E0001D70470000FFFF1F00E8
:102070002DE9FE4305460E461446029500200190C8
:10208000009000274FF0FF38204600F0A5F80746E3
:102090008146FFF7D9FFB04202DD6FF001088FE003
:1020A00000208DF80400019820F0F000103001901D
:1020B0009DF8041002A803F0D7FC39460298FFF7F8
:1020C000A7FF029908440290207A042808D13EA173
:1020D00002A803F0B5FC042102A803F0C5FC07E048
:1020E0003BA102A803F0ACFC032102A803F0BCFC56
:1020F00000208DF80000A17E009861F3410000905F
:10210000E07E08B1012100E00021009861F3820027
:1021100000900098C0F3800058B194F83D100098EA
:1021200061F3C400009094F83C10009861F34510EE
:102130000090206C08B9A06C20B1009820F08000BD
:1021400080300090E06C08B9606D20B1009820F0FC
:102150004000403000909DF8001002A803F084FC7D
:10216000218B02A803F086FC02A8D4E90423E168CD
:1021700003F098FCE07E58B102A8D4E90A23616A12
:1021800003F090FC02A8D4E90D23216B03F08AFC34
:102190000098C0F3C01028B102A8D4E91123216C23
:1021A00003F080FC0098C0F3801028B102A8D4E9A5
:1021B0001423E16C03F076FC0298A0EB050800BF45
:1021C0004046BDE8FE8300004D515454000000001D
:1021D0004D5149736470000070B504460025207AA3
:1021E000032801D10C2503E0207A042800D10A2518
:1021F000D4E90412E06800F0AFFB801C0544E07EE7
:1022000068B1D4E90A12606A00F0A6FB861CD4E922
:102210000D12206B00F0A0FB3044801C0544206CA4
:1022200008B9A06C30B1D4E91112206C00F094FB15
:10223000801C0544E06C08B9606D30B1D4E914121B
:10224000E06C00F089FB801C0544284670BD2DE938
:10225000F04F87B005460F4690461C46DDE915B69F
:10226000DDE9109A069500200590049003900096F1
:10227000204612A90EC900F042F804900290FFF720
:10228000E3FEB84203DD6FF00100039033E00598F0
:1022900020F0F00030300590059868F3C3000590F9
:1022A000059864F342000590059869F300000590D5
:1022B0009DF8141006A803F0D7FB04990698FFF7C1
:1022C000A7FE06990844069006A812A90EC903F0B5
:1022D000E9FB002C03DD514606A803F0CBFB324698
:1022E00059460698FDF79CFF0698304406900698DC
:1022F000401B039000BF039807B0BDE8F08F7FB587
:102300000546089E002401A807C800F025FB801C94
:1023100030440444002D00DDA41C204604B070BDF0
:102320002DE9FF5F05460E4617469846DDE90E9AF1
:1023300003950020029001900090002451464846E9
:1023400000F046F883460190FFF77EFEB04202DDC2
:10235000A01E009038E000208DF80800029820F0C0
:10236000F00080300290029867F3C3000290029858
:1023700020F00600801C02909DF8081003A803F0CE
:1023800073FB01990398FFF743FE039908440390F8
:10239000414603A803F06EFB00240FE004EB440069
:1023A0000AEB800C03A89CE80E0003F07BFB10985E
:1023B00010F8241003A803F057FB641C4C45EDDB18
:1023C0000398401B009000BF009804B0BDE8F09F48
:1023D0002DE9F04105460E46022700240AE004EBF1
:1023E000440006EB800393E8070000F0B5FAC01C38
:1023F0000744641CAC42F2DB3846BDE8F0812DE9AD
:10240000FC4104460D46164600200190471E0094EC
:10241000022D01DA871E15E000208DF804000198D6
:1024200066F3071001909DF80410684603F01CFB4A
:1024300000210098FFF7ECFD0099084400900098F7
:10244000071B00BF3846BDE8FC81000030B585B0F1
:10245000002001F07AFB00287AD0132804D0172836
:102460000CD01C2809D1B8E1E3480288E3490020D8
:1024700001F01AFAE2A000F063FDBAE1002001F0D9
:1024800031FB00F0010018B10121002002F07EFCB8
:102490004FF48061DF48FDF7DCFE002001F02BFBEC
:1024A000040038D1DC480078012835D18002D949B0
:1024B000DAA2E5A3CDE9002102900122B421E8A02F
:1024C00001F0ACFB0020D44908704FF48062D14980
:1024D00002F04EFB4FF4FA6001F090FA08E04FF47E
:1024E000FA6001F08BFA7522CA49002002F040FB25
:1024F000002001F000FB0400F1D0A2B2C549002089
:1025000002F09AFA02E0E0A000F01AFDC14801F0E2
:1025100008FC0228F7D1B1E0DE480078012839D163
:102520008102BC48FDF795FE4FF48062B949DA4854
:1025300001F0D1FB4FF48062B649002002F018FB95
:102540000020D44908704FF4FA6001F057FA0AE00D
:1025500047E14FF4FA6001F051FA4FF48062AD495F
:10256000002002F005FB002001F0C5FA0400F0D0C5
:10257000A2B2A849002002F05FFA00BFC7A000F095
:10258000DFFCA44801F0CDFB0928F7D1C5A000F07D
:10259000D7FC73E0C6A000F0D3FCC748006842F245
:1025A000107188426ADD0020C34908604FF48061E1
:1025B000984801F057FB4FF480629649002002F0E2
:1025C000D7FA02E0BDA000F0BBFC002001F093FAB6
:1025D0000400F7D0A2B28F49002002F02DFA214664
:1025E000BBA000F0ADFC022C48DD8A48801C01F045
:1025F00098FB032842D1BAA000F0A2FCA01E854996
:10260000891CBA4ABA4BCDE90132CDE90310B94869
:10261000B94BBA4ABA490090BA48FFF72BFC64217B
:102620009D48FDF716FEF021B748FDF712FEB148B0
:10263000426881689848FDF7F3FDB4A3B6A29649B5
:10264000B74802F065FA9449B6A000F079FCA848B2
:102650000168AD48FDF739FE4FF480616D48FDF724
:10266000F8FDB3A34FF480626A49AD4801F003FB63
:102670004FF480626749002002F07AFA002001F0EE
:102680003AFA041E53DDACA000F05AFCA2B2614934
:10269000002002F0D1F95F4801F043FB032847D145
:1026A0008FA000F04DFC5B489049914ACDE90304AE
:1026B000CDE901218F48904B904A91490090914873
:1026C000FFF7D8FB64217448FDF7C3FD89484268D1
:1026D00081687148FDF7A4FD8CA38FA26E499048D4
:1026E00002F016FA6C498FA000F02AFCF02186480F
:1026F000FDF7AFFD7E480068FDF7E0FD05462A4680
:102700007B4801688048FDF78BFD4FF480614148AC
:10271000FDF79FFD8A4B4FF480623E49804801F0EF
:10272000AAFA4FF480623B49002002F021FA53E0FC
:10273000384801F0F6FA0D284BD1022C4CDD354813
:10274000801C01F0EEFA032846D165A000F0F8FBEA
:10275000A01E3049891C654A654BCDE90132CDE99F
:1027600003106448644B654A654900906548FFF76B
:1027700081FB64214848FDF76CFD5E484268816832
:102780004548FDF74DFD61A363A24349644802F04B
:10279000BFF9414963A000F0D3FBF0215A48FDF78F
:1027A00058FD534801685848FDF78FFD4FF480618C
:1027B0001848FDF74EFD5EA34FF480621549584856
:1027C00001F059FA4FF480621249002002F0D0F96A
:1027D00002E05CA000F0B4FB0BE0002001F04AF83E
:1027E00007E020235B4802880121002002F078FBEB
:1027F00000BF00BF05B030BDC4000020C0000020F5
:10280000636F6E6E656374696E672E2E2E2E2E2E8C
:102810002E0D0A00285C0020CA00002031313161F1
:1028200030333561663563666564633932326661BB
:10283000363266646666383335653232393465342B
:10284000393632350000000046592D53544D33328D
:102850002661315A435937414345356B000000002A
:1028600031323334357C7365637572656D6F6465C1
:102870003D332C7369676E6D6574686F643D686D78
:102880006163736861317C00776169742061636B97
:102890000D0A0000CB000020E00000203131313172
:1028A0003100000073656E64207375620D0A0000CC
:1028B0003232323232000000440100207761697404
:1028C0002070696E67726573706F6E7365000000CB
:1028D00070696E67206C656E203A2025640D0A00D1
:1028E0007075626C6973680D0A000000D8000020E2
:1028F000DC00002018610020D6000020D400002059
:10290000D0000020CD000020286000207265737088
:102910006F6E7365000000007265717565737400F9
:1029200024610020746F7069633A25730D0A0000FA
:1029300068656C6C6F000000333333333300000084
:102940008861002077616974207075626C697368B2
:102950000D0A0000C600002037B50024009820B101
:102960000098FDF7ABFC044600E0019C20463EBD0C
:1029700000BFFEE77047000008B508490968C908AC
:102980004FF47A72B1FBF2F14143009100BF00BFF6
:1029900000994A1E00920029F9D108BD08000020C4
:1029A00010B5002202210848FEF7ECF9022001F0E0
:1029B00045F8012202210448FEF7E4F94FF4C8600B
:1029C00001F01CF810BD00000018014001B582B0F4
:1029D0004FF47A70012301AA02A900900248FEF781
:1029E00063FE9DF804000EBD64080020F8B504469F
:1029F0000D4616462B46002280212046009600F008
:102A00000CF828B1606D40F0200060650320F8BD2F
:102A10000020FCE70146012070472DE9F041044603
:102A20000E4617461D46DDF818803EE0681CD8B3F8
:102A3000FEF7AEF9A0EB0800A84200D2A5BB2068C3
:102A4000406820F0E000216848606068B0F5827F4F
:102A50000DD1A068B0F5004F03D0A068B0F5806F2D
:102A600005D12068006820F0400021680860A06A55
:102A7000B0F5005F0DD100BF2068006820F4005061
:102A8000216808602068006840F4005021680860F0
:102A900000BF012084F8510000BF002084F85000DE
:102AA00000BF0320BDE8F081FFE720688068304068
:102AB000B04201D1012000E00020B842B6D1002090
:102AC000F0E730B58FB005460024012005900004E2
:102AD00006900020079002200C90C1030D910E95E6
:102AE00005A8FEF72FFB04460CB100BFFEE70F2040
:102AF000009002200190002002904FF4806003902B
:102B00000020049002216846FEF7E6F904460CB165
:102B100000BFFEE70FB030BD10B503F0ADFB0128DC
:102B200001D003F02FF810BD1148006840F00100FB
:102B30000F490860084640680E4908400C49486043
:102B4000084600680C4908400949086008460068C2
:102B500020F4802008600846406820F4FE004860A9
:102B60004FF41F008860C8030449086070470000E4
:102B7000001002400000FFF8FFFFF6FE08ED00E045
:102B800070B505466C6A0020E085E0842046FEF7BB
:102B900030FF70BD0168C96821F490710268D1608E
:102BA0000168496921F0010102685161202180F822
:102BB0003A10704710B504462068C06820F0400005
:102BC0002168C860202084F839002046FFF7CCF83F
:102BD000002010BD70B5044694F83A0022284AD16E
:102BE000A068B0F5805F13D1A56A206940B920685C
:102BF0004068C0F308002880A06A801CA06219E029
:102C000020684068C0B22880A06A401CA06211E021
:102C1000206938B920684068C1B2A26A501CA0621D
:102C2000117007E02068406800F07F01A26A501C24
:102C3000A0621170E08D401E80B2E085C8B92068A6
:102C4000C06820F020002168C8602068C06820F4B7
:102C500080702168C8602068406920F00100216808
:102C60004861202084F83A002046FFF739F8002018
:102C700070BD0020FCE70220FAE7000070B50446B2
:102C80002168096921F44051E26811432268116109
:102C90002269A1681143626941EA02052168C96895
:102CA00041F20C62914329432268D160216849694D
:102CB00021F44071A269114322685161564A21688A
:102CC000914254D1FEF7E4F900EBC00101EB001191
:102CD00062689200B1FBF2F100EBC00202EB00125D
:102CE00063689B00B2FBF3F26423B2FBF3F202EBE6
:102CF000C20303EB0212A1EB8201322202EB0111AB
:102D00006422B1FBF2F101F0F00100EBC00202EB32
:102D1000001263689B00B2FBF3F26423B2FBF3F290
:102D200001EB021200EBC00101EB001163689B0094
:102D3000B1FBF3F100EBC00303EB00136668B600D0
:102D4000B3FBF6F36426B3FBF6F303EBC30606EB23
:102D50000313A1EB8301322303EB01116423B1FBC5
:102D6000F3F101F00F0111442268916053E0FEF786
:102D70007FF900EBC00101EB001162689200B1FB2A
:102D8000F2F100EBC00202EB001263689B00B2FBA1
:102D9000F3F26423B2FBF3F202EBC20303EB021281
:102DA000A1EB8201322202EB01116422B1FBF2F1AC
:102DB00001F0F00100EBC00202EB001263689B001F
:102DC000B2FBF3F26423B2FBF3F201EB021200EB6D
:102DD000C00101EB001163689B00B1FBF3F100EB54
:102DE000C00303EB00136668B600B3FBF6F364267A
:102DF000B3FBF6F303EBC30606EB0313A1EB83016E
:102E0000322303EB01116423B1FBF3F101F00F0155
:102E100011442268916070BD00380140014691F86C
:102E2000390021282CD18868B0F5805F0FD10A6A5B
:102E30001088C0F308000B685860086918B9086A60
:102E4000801C086209E0086A401C086205E00B6A01
:102E5000581C086218780B685860C88C401E80B2F5
:102E6000C88458B90868C06820F080000B68D86032
:102E70000868C06840F040000B68D86000207047C8
:102E80000220FCE710B500240C48FEF7BDFD00BF92
:102E900001E0641C00BF0948FEF7ACFD2028F8D112
:102EA00000BF002401E0641C00BF01220449034864
:102EB000FEF7DEFE0028F6D100BF10BD1402002090
:102EC0001C00002000BFFEE710B504462CB900220C
:102ED00040210648FDF756FF06E0012C04D10122EF
:102EE00040210248FDF74EFF10BD000000180140D0
:102EF00010B51148114908604FF4827048600021F4
:102F00000E488160C16002210161012141614902D5
:102F100081613821C1610021016241628162072122
:102F2000C162FEF741FB05480068006840F04000C0
:102F300002490968086010BD00380040640800209C
:102F40000FB4054B10B503A9044A029800F0E6F847
:102F500010BC5DF814FB0000853A00084801002011
:102F600002480068C0F30220704700000CED00E04A
:102F700010B5002804DB0A07130E054A135406E0B7
:102F80000A07140E034A00F00F031B1FD45410BD90
:102F900000E400E018ED00E002E008C8121F08C1DC
:102FA000002AFAD170477047002001E001C1121FCA
:102FB000002AFBD1704700002DE9FF5FDDE9022008
:102FC000010DDDF838B0024318D044F61050A1F2DC
:102FD000FF3141430D140F98012820D0A5EB0B00C1
:102FE000401C5FEA000A4FF00004474EDFF81C91D6
:102FF000A046504616D5CAF1000728E00F980124D4
:1030000043A2012808D0002100980F9BC0E90021AD
:10301000C0E90243BDE8FF9F6FEA0B01F4E7CBF183
:103020000000DEE7074612E0F80707D022463346E5
:1030300040464946FDF752F98046894622463346C6
:1030400010461946FDF74AF904460E467F10002F38
:10305000EAD1DDE90201BAF1000F42464B4602DA3D
:10306000FDF73CF901E0FDF70EFB04460E46002299
:10307000284BFDF7A5F903D84FF0FF30014607E0D4
:103080000022254B20463146FDF756FAFDF76AFB34
:10309000102409E0002C0ADB0A220023FDF7BEF908
:1030A000019B30321A55641E50EA0102F2D1641CB1
:1030B000019AC4F1110314440F9A012A03D001228A
:1030C00008430DD10AE0084304D000204FF0110B53
:1030D0000F9080E7A3EB0B056D1E0DE05B4504DD53
:1030E0004FF0000205F1010504E003DA4FF00002A1
:1030F000A5F10105002AECD000980F99C0E9023132
:10310000C0E9004586E70000000024400000F03FD1
:10311000300000000000F0430000E03F2DE9FF4FC9
:1031200095B09B468946064600250FE2252877D1B3
:1031300000242746F84A0121059400E0044316F8CC
:10314000013F203B01FA03F01042F7D130782A28E2
:1031500011D06FF02F033078A0F13002092A16D871
:10316000059A44F0020402EB820203EB420210448F
:10317000761C0590EFE759F8042B0592002A03DA34
:10318000504244F40054059044F00204761C307818
:103190002E2816D116F8010F44F004042A280DD069
:1031A0006FF02F023078A0F13003092B09D807EB1C
:1031B000870302EB4303C718761CF3E759F8047B37
:1031C000761C30786C280FD006DC4C2817D0682885
:1031D0000DD06A2814D104E0742810D07A280FD1B9
:1031E0000DE044F400140AE044F4801401E044F4D7
:1031F00040147278824202D104F58014761C761C49
:10320000307866280BD013DC582877D009DC0028EA
:1032100075D04528F6D04628F4D047281AD19DE12C
:1032200018E0632835D0642879D0652812D195E15B
:10323000702873D008DC6728F1D069286FD06E2819
:103240000DD06F2806D1B5E073282CD0752875D025
:10325000782874D05A46179990476D1C75E1C4F3CD
:103260000250022809D003280DD0D9F800100428F4
:103270000DD00D6009F1040967E1D9F80010EA17D3
:10328000C1E90052F6E7D9F800100D80F2E70D70A1
:10329000F0E719F8041B8DF8001000208DF80100EC
:1032A000EA46012003E059F804AB4FF0FF30610714
:1032B0004FF0000102D40DE008F101018846B94247
:1032C0000FDA8045F8DB1AF808100029F4D108E07D
:1032D00008F1010188468142FADB1AF8081000293A
:1032E000F6D105985B46A0EB080721463846179AA9
:1032F00000F094FA284400EB080507E04DE029E1CE
:103300000DE01AF8010B5A4617999047B8F10108D9
:10331000F7D25B4621463846179A13E142E00A226B
:103320000092C4F302524FF0000A022A08D059F862
:1033300004CB032A4FEAEC710AD00DE029E02AE021
:1033400009F1070121F00702F2E802C1914609E004
:103350000FFA8CFC4FEAEC71042A03D14FFA8CFC73
:103360004FEAEC71002907DA0A460021DCF1000C73
:1033700061EB02012D2202E0220504D52B228DF8FB
:103380000420012203E0E20701D02022F7E7904663
:1033900059E00A2102E010220DE010214FF0000A4E
:1033A00000910BE010224FF0000A44F004040827BB
:1033B000009203E008224FF0000A0092C4F3025288
:1033C000022A05D059F804CB0021032A08D009E0CD
:1033D00009F1070121F00702F2E802C1914605E078
:1033E0001FFA8CFC042A01D10CF0FF0C4FF00008EE
:1033F000220728D5702806D0009B83F0100353EADB
:103400000A0305D00EE040228DF80420012208E0D6
:103410005CEA010206D030228DF804208DF8050008
:1034200002229046009B83F0080353EA0A030AD164
:103430005CEA010201D1620705D530228DF8042033
:103440004FF001087F1E582804D034A003900EA826
:1034500002900DE036A0F9E753466046009AFCF76B
:10346000DDFF84460398825C0298401E0290027041
:103470005CEA0100F0D1029806A9081A00F1200ABE
:10348000600702D524F4803400E00127574502DDAF
:10349000A7EB0A0000E0002000EB0A01009005986D
:1034A0004144401A0590E00306D45B462146179A32
:1034B000059800F0B3F90544002706E001A85A4634
:1034C000C05D179990476D1C7F1C4745F6DBE003F4
:1034D0000CD55B462146179A059800F09FF90544E4
:1034E00004E030205A46179990476D1C0099481EF9
:1034F00000900029F5DC08E0029802995A4600780D
:10350000491C0291179990476D1CBAF10001AAF16C
:10351000010AF1DC65E10000092801003031323395
:1035200034353637383961626364656600000000FF
:1035300030313233343536373839414243444546E9
:103540000000000000F058F90544761C307800288F
:103550007FF4ECAD19B02846BDE8F08F620700D4C7
:10356000062709F1070222F0070CFCE80223E146D6
:1035700003F000485FEA080C02D00FF2702C0DE057
:103580005FEA045C02D50FF2682C07E05FEAC47CB6
:1035900002D00FF2602C01E0AFF2700C4FF0FF3858
:1035A00023F00043CDF850C065280CD006DC452838
:1035B00009D046281DD047283DD13DE0662818D0C7
:1035C00067287ED138E00021112F01DB112000E0B7
:1035D000781CCDE9000106A90EA8FFF7EDFCDDE996
:1035E0000F010E9A03910021009207F1010A049144
:1035F0004DE04FF000400097CDE9011006A90EA85C
:10360000FFF7DAFCDDE90F0203920E9B119900220D
:10361000DDF80CA00093049211B9791C00EB010AAB
:10362000B7EB0A0004D4C0F1FF3007F1010A04909F
:10363000AAEB0700019044E0012F00DA01270021E6
:10364000112F01DD112000E03846CDE9000106A967
:103650000EA8FFF7B1FCDDE90F010E9A03910021DE
:1036600004910092BA4621070CD40399514500DA1F
:103670008A46BAF1010F05DD009AAAF10101515CF9
:10368000302908D0B84202DA10F1040F06DA01211D
:10369000CDE9011015E0AAF10101E9E7002805DCF8
:1036A000049901440491AAEB000102E0411C514538
:1036B00000DD8A460499401A401C01904FF00040FA
:1036C0000290200704D40198504501DBCDF8048016
:1036D00000208DF84F0002980DF14F07B0F1004F18
:1036E00025D02B200E9002984FF0020800280CDA0B
:1036F000404202902D200E9007E00A210298FCF72C
:1037000077FE3031029007F8011DB8F10001A8F1F1
:103710000108F2DC02980028EFD1791E0E9808709B
:10372000307800F0200040F0450007F8020D12A8A4
:10373000C01B00F107081498007800B1012000EBCD
:103740000A01019801EBE07105984144401A401EBE
:103750000590E00306D45B462146179A059800F0D1
:103760005DF805441498007818B15A4617999047A7
:103770006D1CE00324D55B462146179A059800F09E
:103780004DF805441CE00498002807DBDDE903013F
:10379000884203DD0098405C179901E017993020BA
:1037A0005A469047049805F10105401C0490019881
:1037B000401E019004D12E205A46179990476D1C47
:1037C000BAF10001AAF1010ADDDC05E017F8010BEE
:1037D0005A46179990476D1CB8F10001A8F10108ED
:1037E000F4DC5B462146179A0598ABE62D000000F5
:1037F0002B000000200000002DE9F04104460025C8
:103800001E461746880404D405E039462020B047F8
:103810006D1C641EF9D52846BDE8F0812DE9F04104
:10382000044600251E469046C80301D5302700E017
:103830002027880404D505E041463846B0476D1C72
:10384000641EF9D52846BDE8F081000010B5024697
:10385000002309E0064800680078107004480068FA
:10386000401C034C20605B1C8B42F3DB084610BD00
:10387000BC00002010B504464FF4847101EB4410E5
:103880001021FEF79DFA00BF4FF4847101EB441044
:10389000FEF777FA0028F7D14FF4027101EB4410DC
:1038A000FF21FEF78DFA10BD2DE9F04105460C46CB
:1038B00016462078FF2808D16078FF2805D1A07827
:1038C000FF2802D1E078FF2808D0207828B9607856
:1038D00018B9A07808B9E07800B10EB900275CE00B
:1038E0000127217840F6084202EB4510FEF768FAFE
:1038F000617840F6085202EB4510FEF761FAA178B4
:1039000040F6086202EB4510FEF75AFAE17840F6FD
:10391000087202EB4510FEF753FA310A41F2080231
:1039200002EB4510FEF74CFAF1B241F2081202EB3D
:103930004510FEF745FA4FF4847101EB4510042160
:10394000FEF73EFA00BF4FF4847101EB4510FEF71D
:1039500018FA0028F7D117E04FF4427101EB451037
:10396000FEF70FFA172800D116E0284600F0BAF843
:1039700000F0080040B14FF4027101EB451008213E
:10398000FEF71EFA002707E04FF4427101EB4510E5
:10399000FEF7F7F91528DFD100BF3846BDE8F08102
:1039A00010B50420FDF7F7FF104800681049B0FB80
:1039B000F1F0104908700D4800680D49B0FBF1F4B2
:1039C0004FF47A70444301200B4908804FF0E02007
:1039D000006940F002004FF0E021086108464461B0
:1039E000006940F00100086110BD000008000020DF
:1039F00040420F00160000201800002070B5044659
:103A000002F03AFC012810D00B480088844206D30B
:103A100009480088B4FBF0F5284601F05BFD064834
:103A20000088B4FBF0F100FB11444FF47A7104FB01
:103A300001F000F003F870BD1800002070B50346D7
:103A400000224FF0E02675690D4E367803FB06F430
:103A50004FF0E026B16910E04FF0E026B0698842EF
:103A60000BD0884202D20E1A324402E02E1A0E44C3
:103A700032440146A24200D300E0EDE700BF70BD32
:103A80001600002000BF054A126802F04002002A1A
:103A9000F9D0C2B2014B1B1D1A60704700380140BB
:103AA00010B5044604222146900101F061FF10BDCB
:103AB0000146024830F8110070470000BC080020A1
:103AC00010B50446042221464FF4706001F050FF07
:103AD00010BD10B50446042221464FF4A06001F049
:103AE00047FF10BD10B504464FF4027101EB4410BE
:103AF000FEF747F910BD70B504460025002600BF4B
:103B000042F2086101EB4410FEF73BF9064642F22F
:103B1000087101EB4410FEF734F900EB062086B281
:103B20007EB142F2086101EB4410FEF72AF9054626
:103B300042F2087101EB4410FEF723F900EB052077
:103B400085B2B542DCD1284670BD10B504464FF4AD
:103B5000427101EB4410FEF714F910BD70B5044634
:103B60000025002600BF42F2080101EB4410FEF7D9
:103B700008F9064642F2081101EB4410FEF701F97C
:103B800000EB062086B27EB142F2080101EB441040
:103B9000FEF7F7F8054642F2081101EB4410FEF774
:103BA000F0F800EB052085B2B542DCD1284670BDA7
:103BB00001E0FEF74BFCFCE71CB5FDF7EFF84FF416
:103BC000E010FEF77EFFFFF7EBFE4FF4E13001F06F
:103BD000A7FAFCF741FEFFF78BF9FEF7E1FE01F0D3
:103BE000E1F801F00FF9FEF705F90748012100237C
:103BF0008022CDE9001005A1074802F00DFB01F07D
:103C000005FE00201CBD00000000002073746172DE
:103C1000745F7461736B0000A54F00082DE9F04FCD
:103C200097B004460D4616461F46DDE9219ADDF899
:103C3000808058220A4901A8FCF7F2FA0494A8B23D
:103C4000ADF81C008DF81E601197CDF8508001AAC8
:103C500051464846FEF70CFA834617B0BDE8F08F90
:103C6000E067000870B504460D460C222946204640
:103C7000FEF7C5FB70BD2DE9F043A3B005460E4627
:103C800017461C462046FCF719FB8046002007908B
:103C90000890099064210AA8FCF7DBFA2846FCF793
:103CA0000DFB81464A4629460AA8FCF7B9FA0AA83C
:103CB0000790CDE9054807A807C802AB07C3002055
:103CC000009002230246394601903046FEF7BFFAC3
:103CD00023B0BDE8F0832DE9F041A0B004460D46C5
:103CE0001646012700201F9003900490059020465F
:103CF000FCF7E4FA80464246214606A8FCF790FA13
:103D000006A803901FA803A901223B46CDE9002184
:103D10000290002231462846FEF702FB20B0BDE8A3
:103D2000F08108B501464FF0FF30002200920A787A
:103D30008DF80020009AC2F3031008BD2DE9F04170
:103D400005460E461C4807681C480068001D01F027
:103D500003FA50B91948006890F82C1001208840E7
:103D600017490968814316480160681C38B936B1A3
:103D700012480168091D134801F02CFA1AE07C1959
:103D80000E4800684460BC4207D20C480168091D17
:103D90000D48006801F004FA0CE008480168091DAC
:103DA0000A48006801F0FCF909480068844201D221
:103DB00007480460BDE8F0815C0000204800002056
:103DC00060000020EC0B0020500000204C00002080
:103DD0007800002010B5044601F008FA2448006875
:103DE000401C234908602348006840B9214804600A
:103DF0000846006801280DD100F0EEF90AE01E48DF
:103E0000006838B91B480068C06AE16A884201D876
:103E10001848046019480068401C184908600846A2
:103E20000068606494F82C100120884014490968E7
:103E3000084313490860E16A01EB8101114A02EB72
:103E40008100211D01F0C6F901F014FA0A4800684A
:103E500068B108480068C06AE16A884207D24FF03A
:103E6000805009490860BFF34F8FBFF36F8F10BDBB
:103E7000580000204800002064000020740000204A
:103E8000600000201C09002004ED00E010B501F0E6
:103E9000ADF910480068D0B90F4801F071F90F482A
:103EA00001F06EF90C480E4908600C480D49086095
:103EB00000221021052001F07FFE06490860084617
:103EC000006820B108A10348006801F0C7FA01F0BA
:103ED000D1F910BD8C000020000C0020140C002033
:103EE0008400002088000020546D72510000000002
:103EF00070B523E001F0E0FC1348006808B9012028
:103F000000E00020054602F043FBBDB901F06EF968
:103F10000D48C068C468201D01F01EF90B480068F8
:103F2000401E0A4908600A480068401E08490860A7
:103F300001F0A0F9204600F060F800BF04480068D6
:103F40000028D7D170BD0000D80B002058000020F9
:103F50005400002070B504460D46206C70B1216CF1
:103F6000E0680844E0606168E068884201D3206846
:103F7000E0602846226CE168FCF752F970BD2DE93B
:103F8000F04104460F4615464FF00008A66B206C22
:103F900040B9206860BB606802F034FA80460020B7
:103FA000606025E07DB93946226CA068FCF738F9DD
:103FB000216CA0680844A060D4E90110884217D39E
:103FC0002068A06014E03946226CE068FCF728F90C
:103FD000216CE068401AE0602168E068884203D202
:103FE000216C6068401AE060022D01D106B1761E96
:103FF000701CA0634046BDE8F08110B50446206BFC
:1040000001F070F9204601F06DF910BD0146084A33
:10401000126812680AB9012200E000220A600A68E8
:1040200022B9034A1268D268106800E00020704785
:104030008400002030B54FF4A043174800F0070477
:104040002CB1C01D20F00700134C041B1B1B0246A3
:10405000124C22600024114D6C60D018083820F0FA
:1040600007000F4C206000240D4D2D686C600C4D36
:104070002D682C601146441A4C60094C24680C6071
:10408000084D4C682C60084D4C682C604FF0004483
:10409000064D2C6030BD0000280C0020A40000203C
:1040A000AC000020B4000020B0000020B8000020C8
:1040B00000BFFFF71DFF064800680128F9D94FF03F
:1040C000805004490860BFF34F8FBFF36F8FF0E754
:1040D0001C09002004ED00E02DE9F04106460D46E4
:1040E00017469846069C0DB9246000E02760E663F9
:1040F00025640121204601F07DFE84F850800020D7
:10410000A064BDE8F08100002DE9F05F82460F4613
:1041100090469B460A9E0C9C4FEA8801A522206B84
:10412000FCF790F8A8F10100216B01EB800929F060
:10413000070909F0070008B9012000E0002028B9AC
:1041400040F22B321BA120A0FEF7FAFE002507E06B
:10415000795D04F134004155785D00B902E06D1CD1
:10416000102DF5D300BF002143200155202E00D390
:104170001F26E662E66400202065201D01F00DF890
:1041800004F1180001F009F82461C6F12000A061D3
:1041900064620020606584F858005A4651464846DB
:1041A00000F000FC20600B9808B10B980460BDE89B
:1041B000F09F00002E2E5C4672656552544F535C92
:1041C0007461736B732E63004572726F723A25735C
:1041D0002C25640D0A00000010B5002407E004EB54
:1041E00084010F4A02EB810000F0CAFF641C202CFE
:1041F000F5D30C4800F0C4FF0B4800F0C1FF0B489A
:1042000000F0BEFF0A4800F0BBFF0A4800F0B8FF0C
:1042100004480949086004480849086010BD0000C6
:104220001C0900209C0B0020B00B0020C40B0020B8
:10423000D80B0020EC0B00204C0000205000002088
:1042400010B50146164800E0006803688B42FBD3B6
:104250000246436813448B4204D143684C682344AC
:10426000436001460A464B6813440468A34211D1D7
:104270000C4C03682468A34208D04B680468646847
:1042800023444B6003681B680B6005E0054B1B680B
:104290000B6001E003680B60884200D0016010BD34
:1042A000A4000020AC0000202DE9F04104460D469A
:1042B00016461F464FF0000865602461B5420CD8D1
:1042C000F01BA169884202D34FF0010811E0211DC3
:1042D0000948006800F064FF0BE0BE4204D2BD4212
:1042E00002D34FF0010804E0211D0448006800F0EB
:1042F00057FF4046BDE8F081880000208400002080
:1043000070B5054600F072FFA86B08B9012400E003
:10431000002400F0AFFF204670BD70B5054600F0E8
:1043200065FFA86BE96B884201D1012400E00024FD
:1043300000F0A0FF204670BD2DE9F3410D46009826
:10434000846C00272CB940F6CE121AA11EA0FEF7ED
:10435000F7FDA06BE16B884201D2012000E0002054
:1043600028B940F6CF1213A117A0FEF7E9FDA06B04
:10437000E16B88421BD294F945602A466946204683
:10438000FFF7FDFD0746701C60B9606A08B901209F
:1043900000E0002050B904F1240002F09FF828B199
:1043A000012703E0701C40B284F8450000BF384686
:1043B000BDE8FC812E2E5C4672656552544F535CFD
:1043C00071756575652E63004572726F723A25735B
:1043D0002C25640D0A000000F8B505460F46134869
:1043E0000068C068C468201D00F0B6FEE0690128BE
:1043F00018D1A06941192B463A462046FFF754FFD1
:1044000080B1002003462A4601460090204602F073
:1044100089F906462EB94FF4027205A10AA0FEF7EB
:104420008FFD00BF2046616A8847F8BD84000020E8
:104430002E2E5C4672656552544F535C74696D65EF
:1044400072732E63000000004572726F723A25731A
:104450002C25640D0A000000F0B587B070E00398C9
:1044600000280CDA04AE2EB940F2E7223AA140A0AF
:10447000FEF766FDD6E90020B168904700BF0398BB
:1044800000285DDB059C606908B9012000E0002080
:1044900010B9201D00F060FE02A800F0C7F8054624
:1044A00003980A284AD2DFE800F00905072C2E45B8
:1044B00006082D2F00BF00BF00BF00BF0498A269EF
:1044C000811803462A462046FFF7EEFEC0B120467B
:1044D000616A8847E069012812D1002000900498A1
:1044E000A169421800231946204602F01BF907462D
:1044F0002FB940F2213218A11DA0FEF721FD00BF07
:104500001DE000BF1BE000BF0498A061A06908B1D6
:10451000012000E0002028B94FF44E720EA114A033
:10452000FEF70EFDA06941192B462A462046FFF7EB
:10453000BBFE04E0204600F0D5FE00E000BF00BF57
:1045400000231A4603A90E48006801F06FFB0028FB
:1045500085D107B0F0BD00002E2E5C467265655215
:10456000544F535C74696D6572732E6300000000D4
:104570004572726F723A25732C25640D0A00000093
:104580008C000020F8B505460C4601F095F9684608
:1045900000F04CF80646009820BB44B9B54206D856
:1045A00001F0F6FF31462846FFF716FF1CE03CB14C
:1045B0000E480068006808B9012000E000200446A9
:1045C000A91B22460A48006800F05EFF01F0E0FFE8
:1045D00050B94FF0805007490860BFF34F8FBFF3C9
:1045E0006F8F01E001F0D4FFF8BD000088000020CB
:1045F0008C00002004ED00E00A490968096809B947
:10460000012100E0002121B14FF0FF31064A116085
:1046100006E004490968C968C868034A416811602E
:10462000704700004C0000207800002070B5044660
:1046300001F032FE054607480068854204D200F0CA
:104640000BF80120206001E0002020600148056097
:10465000284670BD940000202DE9F8432DE0214844
:104660000068C06805681F480068C068C468201DED
:1046700000F072FD2046616A8847E06901281CD17C
:10468000A0694619AE4207D966602461211D15480C
:10469000006800F085FD10E0002003462A46014630
:1046A0000090204602F03EF807462FB940F29232C1
:1046B0000DA113A0FEF744FC00BF0A480068006883
:1046C00008B9012000E000200028C8D00548D0F833
:1046D00000800F480068034908600D48C0F800805A
:1046E000BDE8F883840000202E2E5C46726565527A
:1046F000544F535C74696D6572732E630000000043
:104700004572726F723A25732C25640D0A00000001
:10471000880000200B480068401C08B9012000E018
:10472000002020B9F42208A112A0FEF709FC00BF66
:10473000502080F31188BFF34F8FBFF36F8F00BFFE
:1047400000BFFEE7980000202E2E5C467265655281
:10475000544F535C706F727461626C655C52564466
:10476000535C41524D5F434D335C706F72742E63E6
:10477000000000004572726F723A25732C25640D9B
:104780000A00000008B500BF6846FFF73FFC04467A
:1047900020460099FFF7F6FEFFF75EFEF4E770B5DE
:1047A000044600F023FD94F945501AE0A06C38B19E
:1047B00000212046FFF7C0FD88B100F04BFF0EE05E
:1047C000606A08B9012000E0002038B904F1240033
:1047D00001F084FE18B100F03DFF00E003E0681E28
:1047E00045B2002DE2DC00BFFF2084F8450000F058
:1047F00041FD00F0FBFC94F9445010E0206908B939
:10480000012000E0002048B904F1100001F066FE2C
:1048100008B100F01FFF681E45B200E001E0002D66
:10482000ECDC00BFFF2084F8440000F023FD70BDE5
:104830002DE9F04104464FF0000801F03DF83E48F4
:10484000006808B9FFF7F6FB3C48006820400028E4
:104850005FD1A4B1083404F0070080B104F0070070
:10486000C0F10800044404F0070008B9012000E08A
:10487000002020B9BF2232A13BA0FEF761FB002C33
:1048800047D03D480068844243D83C4E30460568D6
:1048900001E02E462D686868A04202D228680028F0
:1048A000F7D125480068854233D0306800F1080808
:1048B000286830606868001B102813D92F1907F08A
:1048C000070008B9012000E0002020B9EC221CA15B
:1048D00025A0FEF735FB6868001B78606C603846E1
:1048E000FFF7AEFC244968680968081A2249086085
:1048F0000846006822490968884203D21E480068B9
:104900001F4908600D49686809680843686000200D
:10491000286001F03DFE08F0070008B9012000E022
:10492000002028B94FF4967205A10FA0FEF708FBEE
:104930004046BDE8F0810000AC000020B800002037
:104940002E2E5C4672656552544F535C706F7274C4
:1049500061626C655C4D656D4D616E675C6865613B
:10496000705F342E630000004572726F723A2573D7
:104970002C25640D0A000000B0000020A4000020D7
:10498000B40000200648006830B10549096801F10B
:104990005000096D491C0160014800687047000023
:1049A00048000020001F4FF080730360001F21F0BB
:1049B00001030360001F034B0360143802602038BA
:1049C000704700001547000801460A6810780A6819
:1049D000521C0A60704730B501460A685378147853
:1049E0004FF4807505FB04300B689B1C0B6030BDD9
:1049F0002DE9F04105460C46164600272068301A7E
:104A0000012812DD2046FFF7E6FF6860206869682C
:104A10000844B04206D82168A96020686968084443
:104A20002060012703A0FEF78BFA0020286038469B
:104A3000BDE8F081000000002DE9F04104460E467B
:104A400015460027002D15DD2A463146204600F088
:104A500015F84FF4847101EB44104021FDF7B0F9D3
:104A600000BF4FF4847101EB4410FDF78AF9002870
:104A7000F7D12F463846BDE8F08100002DE9F0411E
:104A800004460F4616460025A8462EB9214618A012
:104A9000FEF756FABDE8F08142F6080101EB44103A
:104AA000FDF76FF9054642F6081101EB4410FDF7DA
:104AB00068F900EB052085B2280200EB441000F1F4
:104AC000180832463946404600F052FFA81985B210
:104AD000290A42F6080202EB4410FDF771F9E9B227
:104AE00042F6081202EB4410FDF76AF900BFD1E765
:104AF00043483A20256420556E6578706563746577
:104B00006432206C656E67746820300D0A00000006
:104B10002DE9F047054688461646994600270024A9
:104B2000444618E03A1B21462846FBF7BBFB002011
:104B3000391B685449462846FBF796FB3046FBF77D
:104B4000BDFB00EB070A51462846FBF78DFB2946C3
:104B50002046FBF7BAFB31462046FBF791FB0700E6
:104B6000E0D121462846FBF7B0FBBDE8F087000006
:104B70002DE9F04704468946174600250026A84639
:104B80002046FEF795FFB84204DA2046FEF790FF74
:104B9000064600E03E4600BF2046FEF7DFFF8046A7
:104BA0004FF4427101EB4410FDF7EBF80546172D69
:104BB00003D01C2D01D0002601E0B045ECDB00BF86
:104BC000414625A0FEF7BCF9314627A0FEF7B8F90B
:104BD00032464946204600F057F84FF4847101EB05
:104BE00044102021FDF7ECF800BF4FF4847101EB75
:104BF0004410FDF7C6F80028F7D113E04FF44271D6
:104C000001EB4410FDF7BDF80546172D0AD01C2D09
:104C100008D018A0FEF794F92046FEF72BFE0020DE
:104C2000BDE8F0874FF4027101EB4410FDF7A9F8DD
:104C300000F010001028E1D14FF4027101EB441094
:104C40001021FDF7BDF84FF4027101EB4410102163
:104C5000FDF7B6F83046E3E76672656573697A6515
:104C6000203D25640D0A0000726574203D25640D09
:104C70000A00000053454E445F4F4B2050726F6254
:104C80006C656D21210D0A002DE9F04104460F46A7
:104C900016460025A8462EB9214618A0FEF750F961
:104CA000BDE8F08142F2084101EB4410FDF769F8DC
:104CB000054642F2085101EB4410FDF762F800EBA3
:104CC000052085B2280200EB441000F1100832469E
:104CD0003946404600F080FEA81985B2290A42F202
:104CE000084202EB4410FDF76BF8E9B242F20852B9
:104CF00002EB4410FDF764F800BFD1E743483A20C7
:104D0000256420556E657870656374656431206C28
:104D1000656E67746820300D0A00000010B5044607
:104D200004222146900100F057FE10BD10B5044644
:104D300021464FF4D850FDF743F810BD10B5044696
:104D4000210A4FF4C850FDF73BF8E1B24FF4D050C0
:104D5000FDF736F810BD10B50446062221464FF483
:104D6000106000F039FE10BD10B504460422214643
:104D70004FF4706000F030FE10BD10B50446042200
:104D800021464FF4A06000F027FE10BD70B5044628
:104D90000D464FF4027101EB44102946FDF710F85F
:104DA00070BD0000114812490968C16011490968C5
:104DB000016111490968416110490A6842608988A6
:104DC00001810F49096881610020084981F82000AC
:104DD000012081F821000020488481F8240001206E
:104DE000887200210148C1727047000054020020FF
:104DF00033000020370000203B0000202D00002061
:104E00003F00002008B52148FFF7A5FF1F480C30E0
:104E1000FFF7B3FF1D481030FFF780FF1B48083035
:104E2000FFF7A2FF1A491B4800F0DEF84FF4FA60C2
:104E3000FFF784FF0320FFF779FF1748FEF740FED6
:104E40001548C0780090144883784278017813A000
:104E5000FEF776F81648FEF73CFE1548C07800903D
:104E6000134883784278017812A0FEF769F8164853
:104E7000FEF716FE1448C0780090134883784278F5
:104E8000017812A0FEF75CF808BD0000580200206F
:104E9000250000201D000020330000202049502064
:104EA0003A2025642E25642E25642E25640D0A00E3
:104EB0003700002020534E203A2025642E25642EF2
:104EC00025642E25640D0A003B0000202047572052
:104ED0003A2025642E25642E25642E25640D0A00B3
:104EE0002DE9F04104460D461646984605F00F00A0
:104EF00001280FD005F00F0002280BD005F00F009D
:104F0000032807D005F00F00042803D005F00F0098
:104F1000052841D12046FEF7ADFC45EA08010822EC
:104F200002EB4410FCF74CFF76B1310A4FF481627A
:104F300002EB4410FCF744FFF1B24FF4A16202EB24
:104F40004410FCF73DFF15E015480088401C14494B
:104F500008800A461288110A4FF4816202EB44105D
:104F6000FCF72EFF0E4A11784FF4A16202EB4410B9
:104F7000FCF726FF4FF4847101EB44100121FCF78C
:104F80001FFF00BF4FF4847101EB4410FCF7F9FEE2
:104F90000028F7D1012700E000273846BDE8F0815E
:104FA000440000201CB5044600F020F90848022106
:104FB00000234FF47A72CDE9001006A1084801F0F1
:104FC0002BF90848006800F0BFFA00F053F91CBD47
:104FD000040000206C6564305F7461736B00000036
:104FE000B13B0008000000202DE9F04105460E46C7
:104FF0000027B846002489E0295D41F6087202EBDB
:105000004410FCF7DDFE315D41F6086202EB44100E
:10501000FCF7D6FE0020404921F814003F4921F852
:105020001400B7F5804F32DC285D042816D004DC6C
:10503000012807D0022823D10AE0082814D010281C
:105040001ED117E04FF48060334921F814001DE0B1
:105050004FF40060304921F8140017E04FF48050FD
:105060002D4921F8140011E04FF400502A4921F88D
:1050700014000BE04FF48040274921F8140005E0AC
:105080004FF40060254921F8140000BF00BFB8F5B7
:10509000804F32DC305D042816D004DC012807D0B4
:1050A000022823D10AE0082814D010281ED117E0C6
:1050B0004FF48060194921F814001DE04FF400609E
:1050C000164921F8140017E04FF48050134921F8D5
:1050D000140011E04FF40050104921F814000BE0C7
:1050E0004FF480400D4921F8140005E04FF40060B2
:1050F0000A4921F8140000BF00BF074830F8140027
:105100000744064830F814008044641C082CFFF65D
:1051100073AFBDE8F0810000BC080020CC0800207F
:1051200010B5044609480A49086008464460002151
:105130008160C160016181610C214161FCF70AFD60
:10514000012204490248FCF793FD10BD00380140DC
:10515000140200201C00002001460A69D1E9013038
:105160009860D1E9010358605068884201D188688D
:105170005060002008611068401E10601068704781
:1051800000F1080141604FF0FF31816000F108013A
:10519000C160016100210160704700210161704719
:1051A00010B502460B685C1C0CB9106907E002F1EF
:1051B000080000E04068446824689C42FAD94468CA
:1051C0004C604C68A160886041600A611468641C8E
:1051D000146010BD42684A6093688B6093685960A0
:1051E0009160086103685B1C0360704710B500BFE5
:1051F000502080F31188BFF34F8FBFF36F8F00BF34
:105200000B480068401C0A490860084600680128ED
:105210000DD108480068C0B208B9012000E00020A4
:1052200028B94FF4BD7204A10EA0FDF789FE10BD90
:105230009800002004ED00E02E2E5C467265655259
:10524000544F535C706F727461626C655C5256446B
:10525000535C41524D5F434D335C706F72742E63EB
:10526000000000004572726F723A25732C25640DA0
:105270000A00000010B50B48006828B940F28112FE
:1052800009A114A0FDF75CFE06480068401E054910
:1052900008600846006820B9002080F3118800BF2C
:1052A00000BF10BD980000202E2E5C46726565522E
:1052B000544F535C706F727461626C655C525644FB
:1052C000535C41524D5F434D335C706F72742E637B
:1052D000000000004572726F723A25732C25640D30
:1052E0000A00000070B506463546002E35D0083D50
:1052F0002C461A4960680968084008B1012000E09E
:10530000002028B94FF4A07215A11FA0FDF718FEC8
:10531000206808B9012000E0002028B940F24112BD
:105320000FA119A0FDF70CFE0C4960680968084040
:1053300098B1206888B90949606809688843606045
:1053400000F0BAFA14496068096808441249086014
:105350002046FEF775FF01F01BF970BDB800002074
:105360002E2E5C4672656552544F535C706F72749A
:1053700061626C655C4D656D4D616E675C68656111
:10538000705F342E630000004572726F723A2573AD
:105390002C25640D0A000000B000002006480068BB
:1053A0004FF47A71B0FBF1F0401E4FF0E0214861FC
:1053B00007200861704700000800002070B5FAF768
:1053C00009FF0546102D11D305F1E02090F8F043B8
:1053D00010480078844201DB012000E0002028B959
:1053E0004FF42A720CA117A0FDF7AAFD1948006816
:1053F00000F4E06018490968884201D8012000E003
:10540000002028B94FF42E7203A10EA0FDF798FDDD
:1054100070BD00009C0000202E2E5C467265655217
:10542000544F535C706F727461626C655C52564489
:10543000535C41524D5F434D335C706F72742E6309
:10544000000000004572726F723A25732C25640DBE
:105450000A0000000CED00E0A00000200246002041
:105460000BE0084B53F8303033B9064B43F830109B
:1054700003EBC0035A6002E0401C0828F1D300BFD0
:1054800070470000DC0800202DE9F04105460E467B
:1054900017462C46FFF7AAFE94F94400401C10B9A9
:1054A000002084F8440094F94500401C10B9002005
:1054B00084F84500FFF7DEFEA06B28B93A46314676
:1054C00004F1240000F0F6F82046FFF768F9BDE883
:1054D000F081000070B504460025ACB10F480068AB
:1054E00008B9012000E0002028B940F2CF420CA109
:1054F00010A0FDF725FD00F0DFF900212046FEF7A2
:105500001DFC01F045F805463DB94FF080500D49AE
:105510000860BFF34F8FBFF36F8F70BD8000002016
:105520002E2E5C4672656552544F535C7461736BEA
:10553000732E63004572726F723A25732C25640DC9
:105540000A00000004ED00E070B50546FFF74EFECE
:1055500015B92D48006800E028460446201DFFF7D5
:10556000FBFD78B9E06A00EB8000284951F8200083
:1055700040B994F82C1001208840254909688143DE
:1055800023480160A06A18B104F11800FFF7E4FD98
:1055900020480068401C1F4908601B48006884427E
:1055A00009D1211D1C48FFF715FE1C480068401C4E
:1055B0001A49086009E01A480068401E1849086046
:1055C0002046FEF71AFDFFF717F8FFF753FE1548C0
:1055D0000068C0B10C480068844214D112480068C9
:1055E00008B9012000E0002028B940F265420FA16F
:1055F00013A0FDF7A5FC4FF0805015490860BFF3DC
:105600004F8FBFF36F8F70BD480000201C09002032
:105610006000002074000020D80B002054000020FF
:105620005800002064000020800000202E2E5C46E0
:1056300072656552544F535C7461736B732E6300D3
:105640004572726F723A25732C25640D0A000000B2
:1056500004ED00E001200149086070476C00002063
:1056600070B504460D462CB940F6063207A10CA0D1
:10567000FDF766FC0E48016818312046FFF790FDE3
:1056800001212846FEF75AFB70BD00002E2E5C4615
:1056900072656552544F535C7461736B732E630073
:1056A0004572726F723A25732C25640D0A00000052
:1056B0004800002070B505460E4614462DB940F648
:1056C000313209A10DA0FDF73BFC104801681831EB
:1056D0002846FFF77FFD0CB14FF0FF3621463046DC
:1056E000FEF72CFB70BD00002E2E5C4672656552E5
:1056F000544F535C7461736B732E63004572726F09
:10570000723A25732C25640D0A0000004800002021
:1057100070B505462C46002D4BD02649E06A096835
:10572000C96A884245D2A06900F0004028B92148E2
:105730000068C06AC0F12000A061E16A01EB81014C
:105740001D4A02EB81016069884201D1012000E01D
:10575000002050B3201DFFF7FFFC78B9E06A00EB92
:105760008000154951F8200040B994F82C10012010
:105770008840124909688143104801600D4800685B
:10578000C06AE06294F82C10012088400B49096837
:1057900008430A490860E16A01EB8101064A02EB0D
:1057A0008100211DFFF716FD03E002480068C06A72
:1057B000E06270BD480000201C090020600000204D
:1057C00010B504462CB940F6C13205A109A0FDF779
:1057D000B7FB0C48006820600B480068606010BD93
:1057E0002E2E5C4672656552544F535C7461736B28
:1057F000732E63004572726F723A25732C25640D07
:105800000A000000700000205C0000201CB51A484F
:1058100000210B468222CDE9001018A1194800F0A2
:10582000FBFC0446012C02D100F042FF0446012C8F
:1058300015D100BF502080F31188BFF34F8FBFF305
:105840006F8F00BF4FF0FF300F49086001200F49F4
:10585000086000200E49086000F044F90BE0601C6D
:1058600008B1012000E0002028B940F2847209A1AB
:105870000DA0FDF765FB1CBD7C00002049444C4594
:1058800000000000B1400008780000206400002003
:105890005C0000202E2E5C4672656552544F535CAE
:1058A0007461736B732E63004572726F723A257365
:1058B0002C25640D0A00000002480068401C0149C4
:1058C000086070478000002010B51B48006818B1C0
:1058D00001201A4908602DE0002018490860184886
:1058E0000068B0FA80F0C0F11F0404EB8400154991
:1058F00051F8200008B1012000E0002028B940F64E
:10590000F62211A115A0FDF71BFB04EB84010D4A43
:1059100002EB810041684968416000F1080142687A
:105920008A4202D14168496841604168C9680F4AAA
:10593000116000BF10BD0000800000206C0000203E
:10594000600000201C0900202E2E5C467265655206
:10595000544F535C7461736B732E63004572726FA6
:10596000723A25732C25640D0A00000048000020BF
:105970002DE9F04104460F461546002615B910A042
:10598000FDF7DEFAFCF7F3F9C4F30740FCF712FA6F
:10599000C4F30720FCF70EFA04F0F800FCF70AFA4B
:1059A000002605E00020FCF705FAB855701C86B209
:1059B000AE42F7DBFCF7E0F92846BDE8F0810000D5
:1059C000556E657870656374656432206C656E67CA
:1059D000746820300D0A00002DE9F04104460F469E
:1059E0001546002615B910A0FDF7AAFAFCF7BFF975
:1059F000C4F30740FCF7DEF9C4F30720FCF7DAF93B
:105A000004F0F801091DC8B2FCF7D4F9002604E03F
:105A1000B85DFCF7CFF9701C86B2AE42F8DBFCF73C
:105A2000ABF92846BDE8F081556E65787065637402
:105A3000656432206C656E67746820300D0A000062
:105A400070B504460E463046FAF738FC054629463E
:105A5000204600F00FF82A4631462068FAF7E0FBAE
:105A600020682844206070BD026811700268521CD2
:105A70000260704710B50A46CB1701EB13631B0A8F
:105A8000046823700268521C02600A46CB1701EBBF
:105A900013631B12A1EB0323046823700268521CDA
:105AA000026010BD1FB50446029800280DDD204697
:105AB0000299FFF7DFFFDDE902212068FAF7B0FB6A
:105AC00020680299084420600AE0019820B120462D
:105AD0000199FFF7B5FF03E000212046FFF7CAFF59
